:040000008031A5287E
:10000800803120007F08F200911D0B280C28A228BF
:10001800013025062604031D1228132818280C145D
:100028008C14A501A60118282400151F1C281D28BA
:10003800262815131108F000F1017008F500710861
:10004800F6009E2814082D39F000F1017008F70019
:100058007108F80009307706F00000307806F100E2
:1000680071087004031D39283A2842281108F00045
:10007800F1017008F3007108F4009E282930770612
:10008800F00000307806F10071087004031D4D2857
:100098004E2856281108F000F1017008F500710883
:1000A800F6009E280C307706F00000307806F10044
:1000B80071087004031D612862286D281108F0007A
:1000C800F1017008F3007108F4009513FF309100F6
:1000D8009E282C307706F00000307806F100710871
:1000E8007004031D782879287D289513FF30910026
:1000F8009E2828307706F00000307806F100710855
:100108007004031D8828892891281108F000F1013E
:100118007008F5007108F6009E281108F000F1013A
:100128007008F5007108F6009E289E289E289E28D3
:100138009E289E28151620009111A2287208FF00FB
:1001480009008031EA2821001908FC390238990091
:1001580078309904AF281A1EB228B328AF28B428DB
:100168000130200025062604031DBB28BC28C5280D
:1001780021000C108C1023000C108C1020000C1087
:100188008C100D160D1721000D160D1723000D12DA
:100198000D132400951615161508F0390E3895001C
:1001A80016149417141797141714FF30930050302F
:1001B80092000B17210091158B178B170330200025
:1001C800A400A40BE528E7288031A5288031F52074
:1001D8008031A5008031F6208031A60020008031D2
:0601E800A72801340034D9
:020000040001F9
:04000E00E4F9FFDD35
:00000001FF
