:0400000080312E28F5
:10000800803120007F08F0008B1E0B280C282B283D
:100018000B1D0F2810282B2818101708F701F707B1
:100028001608F601F60780307702B6300319760213
:10003800031C1F28202823280C108C1025280C149A
:100048008C140B1195019701960118142B28700830
:10005800FF0009008031792821001908FC3902388D
:10006800990019088739583899003A281A1E3D28E6
:100078003E283A283F28013078067904031D452890
:1000880046284E280C108C1023000C108C102000D1
:100098000C108C1021000E148E140E150D16230052
:1000A8000E148E140E150D160C3020009E041E130F
:1000B800C030980418158B160B11210095110730C4
:1000C800950495128B178B170330F500F50B6A28EA
:1000D80020009E171F08F83906389F0095019701E0
:1000E80096011814762880312E28F601F701803100
:1000F80086208031F800803187208031F900200087
:0801080080313028013400347D
:020000040001F9
:04000E00E4F9FFDD35
:00000001FF
