:08000000803102288731B62F80
:100F660021001D14080020008731E62F21001D08EE
:100F760083391C389D00080021009E1770309E049E
:100F86001E11FC309E058E150E178E1723008E152A
:100F96000E178E170800F20021009D14D22F9D18FF
:100FA600D52FD62FD22FD72F1C08F1007208860016
:100FB6008701710881001B08F1007008860087010F
:100FC6007108810008008731BF2787318731B9272B
:100FD60087310330F700F70BEE2F8731B3278731C0
:100FE600F42F7930F7007708F00078308731CE2774
:0A0FF6008731F42FF42F8031022818
:020000040001F9
:04000E00E4F9FFDD35
:00000001FF
